:100000000C945C000C9479000C9479000C947900A9
:100010000C9479000C9479000C9479000C9479007C
:100020000C9479000C9479000C9479000C9479006C
:100030000C9479000C9479000C9479000C9479005C
:100040000C9445010C9479000C9479000C9479007F
:100050000C9479000C9479000C9479000C9479003C
:100060000C9479000C947900000000080002010053
:100070000003040700000000000000000000000072
:10008000250028002B0000000000240027002A0083
:10009000040404040404040402020202020203032E
:1000A0000303030301020408102040800102040836
:1000B000102001020408102011241FBECFEFD8E049
:1000C000DEBFCDBF11E0A0E0B1E0E8E4F5E002C0A2
:1000D00005900D92A831B107D9F721E0A8E1B1E070
:1000E00001C01D92A132B207E1F70E948F010C946A
:1000F000A2020C94000090E0FC01EC55FF4F24910B
:10010000FC01E057FF4F8491882399F090E0880F1D
:10011000991FFC01EA57FF4FA591B491FC01E458E7
:10012000FF4F859194918FB7F894EC91E22BEC936B
:100130008FBF089590E0FC01E859FF4F3491FC0116
:10014000EC55FF4F2491FC01E057FF4FE491EE2363
:1001500009F43BC0332339F1333091F038F43130B6
:10016000A9F0323001F584B58F7D12C0373091F09F
:100170003830A1F03430B9F4809180008F7D03C015
:10018000809180008F77809380000DC084B58F7739
:1001900084BD09C08091B0008F7703C08091B0000A
:1001A0008F7D8093B000F0E0EE0FFF1FE458FF4F0B
:1001B000A591B4918FB7F894EC91611103C020958B
:1001C0002E2301C02E2B2C938FBF08953FB7F89498
:1001D00080911D0190911E01A0911F01B0912001FD
:1001E00026B5A89B05C02F3F19F00196A11DB11D92
:1001F0003FBFBA2FA92F982F8827820F911DA11DCD
:10020000B11DBC01CD0142E0660F771F881F991F09
:100210004A95D1F708958F929F92AF92BF92CF9255
:10022000DF92EF92FF926B017C010E94E6004B018E
:100230005C01C114D104E104F104F1F00E94E60074
:10024000DC01CB0188199909AA09BB09883E9340B2
:10025000A105B10570F321E0C21AD108E108F10847
:1002600088EE880E83E0981EA11CB11CC114D10435
:10027000E104F10419F7DDCFFF90EF90DF90CF900C
:10028000BF90AF909F908F9008951F920F920FB6DE
:100290000F9211242F933F938F939F93AF93BF930C
:1002A0008091190190911A01A0911B01B0911C013C
:1002B0003091180123E0230F2D3720F40196A11D62
:1002C000B11D05C026E8230F0296A11DB11D209384
:1002D00018018093190190931A01A0931B01B09308
:1002E0001C0180911D0190911E01A0911F01B091F0
:1002F00020010196A11DB11D80931D0190931E0147
:10030000A0931F01B0932001BF91AF919F918F9156
:100310003F912F910F900FBE0F901F9018957894DA
:1003200084B5826084BD84B5816084BD85B58260FA
:1003300085BD85B5816085BD80916E0081608093AB
:100340006E00109281008091810082608093810014
:100350008091810081608093810080918000816024
:10036000809380008091B10084608093B10080917F
:10037000B00081608093B00080917A0084608093A7
:100380007A0080917A00826080937A0080917A006E
:10039000816080937A0080917A00806880937A00EF
:1003A0001092C1008DE00E947B008CE00E947B00D7
:1003B0008BE00E947B008AE00E947B0089E00E9423
:1003C0007B0088E00E947B0087E00E947B0086E043
:1003D0000E947B0085E00E947B0084E00E947B00FD
:1003E00083E00E947B0082E00E947B0081E00E940B
:1003F0007B0080E0E82E80E0F82EC0E0D1E00881AC
:10040000229661E0802F0E949A00188161E0812F7E
:100410000E949A0064E670E080E090E00E940B0188
:1004200060E0802F0E949A0060E0812F0E949A0075
:1004300064E670E080E090E00E940B0181E0C6314C
:10044000D807E9F6C7E0D0E061E081E00E949A00B9
:1004500061E082E00E949A0061E083E00E949A00DD
:1004600061E084E00E949A0061E085E00E949A00C9
:1004700061E086E00E949A0061E087E00E949A00B5
:1004800061E088E00E949A0061E089E00E949A00A1
:1004900061E08AE00E949A0061E08BE00E949A008D
:1004A00061E08CE00E949A0061E08DE00E949A0079
:1004B00066E970E080E090E00E940B0160E081E07E
:1004C0000E949A0060E082E00E949A0060E083E06F
:1004D0000E949A0060E084E00E949A0060E085E05B
:1004E0000E949A0060E086E00E949A0060E087E047
:1004F0000E949A0060E088E00E949A0060E089E033
:100500000E949A0060E08AE00E949A0060E08BE01E
:100510000E949A0060E08CE00E949A0060E08DE00A
:100520000E949A0066E970E080E090E00E940B0172
:10053000219709F089CFE114F10409F45ECF0E94FC
:0805400000005BCFF894FFCF2F
:100548000D000C000B000A00090008000700060057
:0805580005000400030002008D
:107E0000112484B714BE81FFF0D085E080938100F7
:107E100082E08093C00088E18093C10086E0809377
:107E2000C20080E18093C4008EE0C9D0259A86E02C
:107E300020E33CEF91E0309385002093840096BBD3
:107E4000B09BFECF1D9AA8958150A9F7CC24DD24C4
:107E500088248394B5E0AB2EA1E19A2EF3E0BF2EE7
:107E6000A2D0813461F49FD0082FAFD0023811F036
:107E7000013811F484E001C083E08DD089C08234E0
:107E800011F484E103C0853419F485E0A6D080C0E4
:107E9000853579F488D0E82EFF2485D0082F10E0AE
:107EA000102F00270E291F29000F111F8ED06801E7
:107EB0006FC0863521F484E090D080E0DECF843638
:107EC00009F040C070D06FD0082F6DD080E0C81688
:107ED00080E7D80618F4F601B7BEE895C0E0D1E017
:107EE00062D089930C17E1F7F0E0CF16F0E7DF06D8
:107EF00018F0F601B7BEE89568D007B600FCFDCFD4
:107F0000A601A0E0B1E02C9130E011968C91119780
:107F100090E0982F8827822B932B1296FA010C0160
:107F200087BEE89511244E5F5F4FF1E0A038BF0790
:107F300051F7F601A7BEE89507B600FCFDCF97BE46
:107F4000E89526C08437B1F42ED02DD0F82E2BD052
:107F50003CD0F601EF2C8F010F5F1F4F84911BD097
:107F6000EA94F801C1F70894C11CD11CFA94CF0C13
:107F7000D11C0EC0853739F428D08EE10CD085E9AC
:107F80000AD08FE07ACF813511F488E018D01DD067
:107F900080E101D065CF982F8091C00085FFFCCF94
:107FA0009093C60008958091C00087FFFCCF809118
:107FB000C00084FD01C0A8958091C6000895E0E648
:107FC000F0E098E1908380830895EDDF803219F02E
:107FD00088E0F5DFFFCF84E1DECF1F93182FE3DFCA
:107FE0001150E9F7F2DF1F91089580E0E8DFEE27F6
:047FF000FF270994CA
:027FFE00040479
:0400000300007E007B
:00000001FF
