:100000000C9463000C948B000C948B000C948B006C
:100010000C948B000C948B000C948B000C948B0034
:100020000C948B000C948B000C948B000C94630448
:100030000C948B000C948B000C948B000C948B0014
:100040000C9490030C948B000C94C8020C94A202A4
:100050000C948B000C948B000C948B000C948B00F4
:100060000C948B000C948B000000000024002700EF
:100070002A0000000000250028002B0000000000DE
:1000800023002600290004040404040404040202DA
:100090000202020203030303030301020408102007
:1000A0004080010204081020010204081020000012
:1000B0000008000201000003040700000000000027
:1000C0000000430C3D0C11241FBECFEFD8E0DEBF73
:1000D000CDBF11E0A0E0B1E0ECE2F1E202C005909A
:1000E0000D92A439B107D9F723E0A4E9B1E001C02A
:1000F0001D92A030B207E1F710E0C2E6D0E004C0E4
:100100002197FE010E94630DC136D107C9F70E94F5
:1001100030070C9489100C9400000895CF92DF9260
:10012000EF92FF920F931F93CF93DF936C017A01AD
:100130008B01C0E0D0E0CE15DF0589F0D8016D91CC
:100140008D01D601ED91FC910190F081E02DC60169
:100150000995892B11F47E0102C02196ECCFC701CD
:10016000DF91CF911F910F91FF90EF90DF90CF9093
:100170000895FC01918D828D981761F0828DDF01C9
:10018000A80FB11D5D968C91928D9F5F9F73928F8A
:1001900090E008958FEF9FEF0895FC01918D828D7F
:1001A000981731F0828DE80FF11D858D90E008954C
:1001B0008FEF9FEF0895FC01918D228D892F90E0A4
:1001C000805C9F4F821B91098F73992708958AEA5B
:1001D00091E00E94DB0021E0892B09F420E0822FCE
:1001E0000895FC01848DDF01A80FB11DA35ABF4FF4
:1001F0002C91848D90E001968F739927848FA68926
:10020000B7892C93A089B1898C9180648C93938D4C
:10021000848D981306C00288F389E02D80818F7D3C
:1002200080830895EF92FF920F931F93CF93DF93F4
:10023000EC0181E0888F9B8D8C8D981305C0E88937
:10024000F989808185FD24C0F62E0B8D10E00F5FAB
:100250001F4F0F731127E02E8C8DE8120CC00FB6C4
:1002600007FCFACFE889F989808185FFF5CFCE01B7
:100270000E94F100F1CF8B8DFE01E80FF11DE35AD2
:10028000FF4FF0820B8FEA89FB898081806207C073
:10029000EE89FF896083E889F989808180648083A1
:1002A00081E090E0DF91CF911F910F91FF90EF904F
:1002B0000895CF93DF93EC01888D8823C9F0EA89F4
:1002C000FB89808185FD05C0A889B9898C9186FD4F
:1002D0000FC00FB607FCF5CF808185FFF2CFA8894C
:1002E000B9898C9185FFEDCFCE010E94F100E7CF57
:1002F000DF91CF91089580E090E0892B29F00E9452
:10030000E70081110C9400000895833081F028F4F7
:10031000813099F08230A1F008958730A9F08830BB
:10032000B9F08430D1F4809180008F7D03C080913A
:1003300080008F7780938000089584B58F7702C006
:1003400084B58F7D84BD08958091B0008F7703C000
:100350008091B0008F7D8093B0000895CF93DF939C
:10036000282F30E0F901E255FF4F8491F901E6565C
:10037000FF4FD491F901EA57FF4FC491CC2391F07C
:1003800081110E948501EC2FF0E0EE0FFF1FE45871
:10039000FF4FA591B491EC91ED2381E090E021F421
:1003A00080E002C080E090E0DF91CF910895862F39
:1003B0000C94AE013FB7F89480919A0190919B0103
:1003C000A0919C01B0919D0126B5A89B05C02F3F2F
:1003D00019F00196A11DB11D3FBFBA2FA92F982F6B
:1003E0008827820F911DA11DB11DBC01CD0142E0E6
:1003F000660F771F881F991F4A95D1F708958F922E
:100400009F92AF92BF92CF92DF92EF92FF926B01D9
:100410007C010E94DA014B015C01C114D104E104AA
:10042000F104F1F00E94DA01DC01CB01881999098D
:10043000AA09BB09883E9340A105B10570F321E0EC
:10044000C21AD108E108F10888EE880E83E0981EF0
:10045000A11CB11CC114D104E104F10419F7DDCFD2
:10046000FF90EF90DF90CF90BF90AF909F908F90D4
:1004700008950E94600F0F931F93CF93DF93EC01B9
:1004800088819981009729F02A813B8126173707B7
:1004900088F48B016F5F7F4F0E94960E009761F08A
:1004A000998388831B830A832C813D81232B11F43C
:1004B000FC01108281E001C080E0DF91CF911F91AB
:1004C0000F910895EF92FF920F931F93CF93DF93B5
:1004D000EC017B018A01BA010E943B02288139812B
:1004E00081110DC02115310519F0C9010E94FE0DC1
:1004F000198218821D821C821B821A8206C01D83EB
:100500000C83B701C9010E94770FCE01DF91CF9113
:100510001F910F91FF90EF9008956115710579F08B
:10052000FB0101900020E9F73197AF01461B570B03
:10053000DC01ED91FC910280F381E02D099480E0D3
:1005400090E008951F920F920FB60F9211242F93EF
:100550003F934F935F936F937F938F939F93AF934B
:10056000BF93EF93FF938AEA91E00E94F100FF911D
:10057000EF91BF91AF919F918F917F916F915F911B
:100580004F913F912F910F900FBE0F901F90189594
:100590001F920F920FB60F9211242F938F939F9358
:1005A000EF93FF93E091BA01F091BB018081E0915C
:1005B000C001F091C10182FD12C090818091C30100
:1005C0008F5F8F732091C401821751F0E091C301B6
:1005D000F0E0E655FE4F958F8093C30101C0808106
:1005E000FF91EF919F918F912F910F900FBE0F90E0
:1005F0001F9018951F93CF93DF93282F30E0F901B8
:10060000E255FF4F8491F901E656FF4FD491F9016D
:10061000EA57FF4FC491CC23C9F0162F81110E94D5
:100620008501EC2FF0E0EE0FFF1FEE58FF4FA59174
:10063000B4918FB7F894111105C09C91ED2FE095FE
:10064000E92302C0EC91ED2BEC938FBFDF91CF91AA
:100650001F910895862F642F0C94FA02CF93DF9395
:10066000EC0160E08E810E94FA0261E08E810E94BE
:10067000FA0260E08E810E94FA028BE891E0019715
:10068000F1F7DF91CF910895CF93DF9390E0FC01D4
:10069000E656FF4F2491FC01EA57FF4F84918823CF
:1006A00061F190E0880F991FFC01E859FF4FC59157
:1006B000D491FC01EE58FF4FA591B491611109C08E
:1006C0009FB7F8948881209582238883EC912E230C
:1006D0000BC0623061F49FB7F8943881822F809507
:1006E00083238883EC912E2B2C939FBF06C08FB75A
:1006F000F894E8812E2B28838FBFDF91CF91089546
:10070000862F642F0C9444032FB7F89460919601C0
:100710007091970180919801909199012FBF089550
:100720001F920F920FB60F9211242F933F938F9326
:100730009F93AF93BF938091960190919701A09161
:100740009801B09199013091950123E0230F2D3745
:1007500020F40196A11DB11D05C026E8230F0296C5
:10076000A11DB11D2093950180939601909397014F
:10077000A0939801B093990180919A0190919B0167
:10078000A0919C01B0919D010196A11DB11D809386
:100790009A0190939B01A0939C01B0939D01BF91FE
:1007A000AF919F918F913F912F910F900FBE0F901E
:1007B0001F901895CF92DF92EF92FF920F931F93A5
:1007C000CF93DF937C016C0187E0C80ED11CC0E0A1
:1007D000D0E0062F10E0B8010C2E02C07595679589
:1007E0000A94E2F76170F60181916F010E94FA02AA
:1007F0002196C430D10579F7C701DF91CF911F91C0
:100800000F91FF90EF90DF90CF900C942E03CF923A
:10081000DF92EF92FF920F931F93CF93DF93EC0140
:10082000F62E642F8C810E94FA028D818F3F19F081
:1008300060E00E94FA028F850F2D10E084FF25C032
:100840006E0187E0C80ED11CE12CF12CB8010E2CF2
:1008500002C0759567950A94E2F76170F60181917F
:100860006F010E94FA02FFEFEF1AFF0A88E0E81614
:10087000F10461F7CE01DF91CF911F910F91FF90AD
:10088000EF90DF90CF900C942E03B80184E0759523
:1008900067958A95E1F7CE010E94DA036F2DCE01AC
:1008A000DF91CF911F910F91FF90EF90DF90CF904C
:1008B0000C94DA0341E00E94070481E090E008957F
:1008C00040E00C9407041F920F920FB60F92112470
:1008D0002F933F934F935F936F937F938F939F9348
:1008E000AF93BF93EF93FF938091940187FF05C06F
:1008F00010928500109284001BC020919401022E5A
:10090000000C330B80916B0290E02817390784F4B8
:1009100080919401082E000C990BFC01EE0FFF1F33
:100920008E0F9F1FFC01E95BFD4F808186FD15C086
:10093000809194018F5F8093940120919401022E05
:10094000000C330B80916B0290E028173907C4F438
:10095000809194018C3064F113C080919401082E31
:10096000000C990BFC01EE0FFF1F8E0F9F1FFC0167
:10097000E95BFD4F808160E08F730E94FA02D8CF5F
:100980008091840090918500049680349C4918F4ED
:1009900080E49CE905C080918400909185000496D4
:1009A00090938900809388008FEF809394013BC0DF
:1009B000209184003091850080919401082E000CD4
:1009C000990BFC01EE0FFF1F8E0F9F1FFC01E95BCF
:1009D000FD4F81819281820F931F909389008093B4
:1009E000880080919401082E000C990BFC01EE0FF9
:1009F000FF1F8E0F9F1FFC01E95BFD4F808186FF6B
:100A000012C080919401082E000C990BFC01EE0F8E
:100A1000FF1F8E0F9F1FFC01E95BFD4F808161E08E
:100A20008F730E94FA02FF91EF91BF91AF919F9156
:100A30008F917F916F915F914F913F912F910F9087
:100A40000FBE0F901F90189596E0899FD00111243A
:100A5000A459BD4F90967C936E935F9791E09196C9
:100A60009C9391979091D802E091D902F091DA028B
:100A7000992339F0309751F0811108C08091880294
:100A800004C0309719F05C968C9109940895EF9208
:100A9000FF920F931F93CF93DF93EC01623018F016
:100AA0008F8588608F876B8B1C8A80E48D8B80E1BB
:100AB0008E8B80E58F8B61E08C810E9444038D8159
:100AC0008F3F19F061E00E94440361E08E810E9433
:100AD00044037E0187E0E80EF11C00E010E08F8502
:100AE00084FD03C084E090E002C088E090E0081735
:100AF00019074CF461E0F70181917F010E944403E2
:100B00000F5F1F4FECCF8BE39DE00197F1F760E0A3
:100B10008C810E94FA0260E08E810E94FA028D812F
:100B20008F3F19F060E00E94FA026F8564FD1DC0DE
:100B300063E0CE010E94DA030BE416E4C8010197DA
:100B4000F1F763E0CE010E94DA03C8010197F1F7E3
:100B500063E0CE010E94DA0383E592E00197F1F7AA
:100B600062E0CE010E94DA0316C06062CE010E94EC
:100B700060048BE496E40197F1F76F856062CE0123
:100B80000E94600483E592E00197F1F76F8560624F
:100B9000CE010E9460046F856062CE010E946004F5
:100BA00084E0888B6CE0CE010E94600461E0CE019D
:100BB0000E9460048BE39FE10197F1F782E0898B4B
:100BC00066E0CE01DF91CF911F910F91FF90EF90E2
:100BD0000C946004FC018091DF029091E002892B6B
:100BE00021F421E0309749F413C08091DB02909109
:100BF000DC02309731F421E0FC018081882341F050
:100C000006C0BF010E946E0F21E0892B09F020E091
:100C1000822F0895EF92FF920F931F93CF93DF934C
:100C2000E82EF62EC7E0D0E0042F10E098010C2E3D
:100C300002C0359527950A94E2F7B90161707727CC
:100C40008E2D0E94FA0261E08F2D0E94FA0260E070
:100C50008F2D0E94FA02219748F7DF91CF911F91C3
:100C60000F91FF90EF900895CF92DF92EF92FF9255
:100C7000DC01A03282E0B8070CF03EC0B7FD06C030
:100C8000A53BB1052CF0A4EBB0E002C0A0E0B0E0C1
:100C90008091FA0228E830E06901C81AD10887FD7E
:100CA000D394CC0CDD1CCC0CDD1C0D2C000CEE0800
:100CB000FF088091FB0228E532E0281B310987FDFF
:100CC0003395220F331F220F331FA901330F660BF9
:100CD000770B9A01AB012C193D094E095F090E945F
:100CE000191024EB30E040E050E00E94EF0FC20EFC
:100CF000D31EE41EF51ED6019091F9029C3098F5A2
:100D00008091FA0248E850E0481B510987FD53954D
:100D1000440F551F440F551FA417B5078CF0809141
:100D2000FB0228E532E0281B310987FD3395220FAD
:100D3000331F220F331FAD012A173B070CF4A90103
:100D400042505109440F551F2FB7F894892F90E056
:100D5000FC01EE0FFF1F8E0F9F1FFC01E95BFD4F93
:100D6000528341832FBFFF90EF90DF90CF90089583
:100D7000BC0181EE92E00C948D02643008F063E0D7
:100D80009091F402691710F06FEF690FE62FF0E011
:100D9000EF51FD4F9489682F690F606881EE92E0F2
:100DA0000C9460040F931F93CF93DF93C82FD62F1B
:100DB00086E0C89FF0011124E459FD4F11A2878DF0
:100DC00090A181309105F1F01CF4892B49F043C0CA
:100DD00082309105A9F10397F1F560E070E034C02D
:100DE0006623C9F161E070E08C2F0E9424050E9407
:100DF00084036093C4027093C5028093C6029093EB
:100E0000C70229C00E9484030091C4021091C50248
:100E10002091C6023091C702AB01BC01401B510BAF
:100E2000620B730B8091D6029091D702A0E0B0E0E4
:100E300084179507A607B70718F462E070E004C0AE
:100E4000D11109C063E070E08C2FDF91CF911F9129
:100E50000F910C942405DF91CF911F910F9108956C
:100E6000CF93DF93CDB7DEB7A5970FB6F894DEBF6B
:100E70000FBECDBF789484B5826084BD84B5816097
:100E800084BD85B5826085BD85B5816085BD809155
:100E90006E00816080936E001092810080918100CD
:100EA00082608093810080918100816080938100C5
:100EB000809180008160809380008091B100846087
:100EC0008093B1008091B00081608093B0008091E8
:100ED0007A00846080937A0080917A0082608093A7
:100EE0007A0080917A00816080937A0080917A0004
:100EF000806880937A001092C100E091BA01F0916D
:100F0000BB0182E08083E091B601F091B7011082CD
:100F1000E091B801F091B9018FEC80831092C20189
:100F2000E091BE01F091BF0186E08083E091BC01B9
:100F3000F091BD01808180618083E091BC01F091DE
:100F4000BD01808188608083E091BC01F091BD018A
:100F5000808180688083E091BC01F091BD01808137
:100F60008F7D808361E089E00E94440361E08CE032
:100F70000E94440361E08BE00E94440361E08DE045
:100F80000E9444038091F9028C3008F051C061E066
:100F900082E10E9444038091F902E82FF0E09F0172
:100FA000220F331FE20FF31FE95BFD4F9081907C0E
:100FB000926190831092FA021092FB026CE00E9400
:100FC0002F0D2CE0829FB001112440E050E09A01E7
:100FD000260F371FF901EE0FFF1F2E0F3F1FF901DC
:100FE000E95BFD4F908196FD16C04F5F5F4F4C301F
:100FF000510569F781110FC01092800082E0809343
:1010000081001092850010928400B19A80916F0047
:10101000826080936F00E091F902F0E0CF01880FC9
:10102000991FE80FF91FE95BFD4F80818064808381
:1010300080E090E00E94340662E081EE92E00E943F
:10104000470560E08CE00E94FA0240EB6BE08DE027
:101050000E940A0661E08CE00E94FA02412C512CA9
:10106000320143946AE0862E912CA12CB12C60E0D1
:1010700082E00E94BD068DE491E00E94B80681E006
:101080008093D8020E9484030091C8021091C90283
:101090002091CA023091CB02AB01BC01401B510B25
:1010A000620B730B8091D4029091D502A0E0B0E066
:1010B00084179507A607B70708F011C110E08091C3
:1010C000D202181760F4E091CE02F091CF02E10F46
:1010D000F11D62E080810E9444031F5FF0CFD12C9C
:1010E0008091D302D81608F065C00D2D10E0E09174
:1010F000D002F091D102E00FF11F61E080810E94E7
:101100004403E091D002F091D102E00FF11F60E0C2
:1011100080810E94FA02D301C2010D2C04C0880F05
:10112000991FAA1FBB1F0A94D2F79C011C0120948F
:101130003094C12C8091D202C81628F5EC2CF12CE9
:101140008091CE029091CF02FC01EE0DFF1D8081B7
:101150002CA33DA30E94AE01F70134962CA13DA122
:10116000EE0FFF1FE459FD4F892B29F480819181F7
:10117000822B932B04C080819181822193219183C2
:101180008083C394D7CFE091D002F091D102E00FD9
:10119000F11F61E080810E94FA028091D00290915B
:1011A000D102FC01E00FF11F60E080810E94440346
:1011B000D39496CFE8E8F2E08FEF9FEF238134815C
:1011C000232B21F41082928381831582369632E09C
:1011D000E43CF30799F710E036E0D32E8091D20279
:1011E000181708F056C000E0E12EF12CC701880F57
:1011F000991F9C012C583D4F79012091D302021771
:1012000008F045C0F70160817181002E02C076951B
:1012100067950A94E2F761707727129F9001112475
:10122000200F311DE091CC02F091CD02E20FF31FAF
:10123000A081ECE6F2E080E0458D568D4217530721
:1012400011F461701AC08F5F36968A30A9F7672B48
:10125000E1F0E8E8F2E080E090E04081411110C068
:10126000D89EF001D99EF00D1124E459FD4FA48FB2
:10127000368F258F10A2178E61E00E94D20605C01E
:10128000019636968A30910541F70F5FB6CF1F5F02
:10129000A5CF80E090E010E0FC01E459FD4F21A1D2
:1012A000211111E006968C339105B1F70E94840359
:1012B0006093C8027093C9028093CA029093CB02D4
:1012C000112369F080918D02882349F080918B026F
:1012D00090918C02019719F48091880203C01092BA
:1012E000D80280E020918B0230918C0221303105B0
:1012F00009F0DFC0882309F4DCC01A8219821C823D
:101300001B821E821D828AA31BA2BE016E5D7F4FBF
:10131000FB0101900020E9F73197AF01461B570B05
:10132000CE0101960E9462028091DB029091DC0264
:101330000097C9F069817A816115710591F040913A
:10134000DD025091DE022D813E814217530748F0A5
:101350000E94770F8D819E819093E0028093DF023F
:1013600018C00E94FE0D89819A819093DC028093BF
:10137000DB028B819C819093DE028093DD028D8164
:101380009E819093E0028093DF021A8219821C8270
:101390001B821E821D8289819A810E94FE0D8CE52E
:1013A00091E00E94EA0581111AC08EE591E00E9449
:1013B000EA05811114C00091A8011091A901809142
:1013C000DB029091DC02009709F453C20E947E0F69
:1013D000000F111FF801EE55FE4F718360838EE5FB
:1013E00091E00E94EA058823F9F01092A901109279
:1013F000A80185E090E09093030180930201809121
:101400000201909103018A3091050CF04CC061E01B
:101410000E94BD0680E691E00E94B806809102011C
:10142000909103010196E7CF8CE591E00E94EA05D7
:101430008823D1F08091A8019091A9010197909300
:10144000A9018093A8018091020190910301019765
:10145000909303018093020161E00E94BD0680E643
:1014600091E00E94B80625C061E0809102010E94CF
:10147000BD068CE591E00E94B8068091A80190918C
:10148000A901833091055CF401969093A9018093A2
:10149000A8018091020190910301019606C010926B
:1014A000A9011092A80185E090E090930301809338
:1014B000020180918B0290918C020297D1F480916D
:1014C000A0019091A10101961816190634F48330F9
:1014D00091052CF082E090E002C081E090E09093D2
:1014E000A1018093A00164EF71E080E090E00E9490
:1014F000FF0180918B0290918C020397B1F54AE035
:10150000CE0101967C01BC018091A0019091A101C6
:101510000E94A50FF70101900020E9F73197EE191D
:10152000FF090091DF021091E0023097D1F00E0F19
:101530001F1FB8018BED92E00E943B02882389F0C7
:101540002091DB023091DC028091DF029091E00279
:10155000B701820F931F0E94770F1093E002009350
:10156000DF021092A1011092A00164E670E080E019
:1015700090E00E94FF018091A8019091A90103973A
:1015800009F074C18091A2019091A301019709F023
:1015900068C08091A4019091A501049709F061C0F1
:1015A0008091A6019091A701099709F05AC060E0C7
:1015B00082E00E94BD0682E691E00E94B80661E0EA
:1015C00083E00E94BD0681E791E00E94B8068AE5AB
:1015D00090E00E94340668E873E180E090E00E94A9
:1015E000FF0185E090E090930301809302018091D8
:1015F0000201909103018E3191056CF461E00E942B
:10160000BD0680E691E00E94B806809102019091AB
:1016100003010196E8CF80E090E00E94340685E067
:1016200090E090930301809302011092A90110921F
:10163000A80160E08CE00E94FA0240EB6BE08DE0D4
:101640000E940A0661E08CE00E94FA0210929F015B
:1016500010929E0183E090E090930101809300013D
:1016600005C160E08CE00E94FA02E0919E01F091D9
:101670009F01EF5DFE4F41816BE08DE00E940A0605
:1016800061E08CE00E94FA0282E090E09093030116
:101690008093020180910201909103018E319105A6
:1016A0006CF460E00E94BD0680E691E00E94B806FE
:1016B00080910201909103010196E8CF05E010E0CE
:1016C000109303010093020160E082E00E94BD06D6
:1016D0008CE791E00E94B80661E085E00E94BD06BB
:1016E0008AE891E00E94B80660ED77E080E090E043
:1016F0000E94FF01109303010093020180910201F7
:10170000909103018A3091058CF461E00E94BD063E
:1017100080E691E00E94B806809102019091030159
:1017200001969093030180930201E8CF85E090E059
:1017300090930301809302011092A9011092A801D5
:10174000C0900001D090010191E0C91AD108D09257
:101750000101C092000180919E0190919F0101962C
:1017600063E070E00E943B0D90939F0180939E0187
:101770000D2C000CEE08FF08F7FE26C0E091AA0130
:10178000F091AB010190F081E02D6DE28AEA91E0E9
:10179000099522273327A9012C193D094E095F0914
:1017A00019A28E010F5D1F4FCA01B901A501940155
:1017B0000E945810605DF80162938F012115310578
:1017C0004105510589F715C0A701960119A28E019F
:1017D0000F5D1F4FCA01B901A50194010E94581065
:1017E000605DF80162938F012115310541055105B6
:1017F00089F7B8018AEA91E00E948D0260E971E000
:101800008AEA91E00E948D0280910001909101018D
:10181000892B61F5E12CF12C0FEC10E361E089E0FC
:101820000E94FA02C8010197F1F760E089E00E9486
:10183000FA02C8010197F1F7FFEFEF1AFF0A20EA59
:10184000E216F10459F783E090E090930101809350
:10185000000160E08CE00E94FA0240EB6BE08DE05A
:101860000E940A0661E08CE00E94FA020E947B015D
:10187000FECB60E070E0CB01ABCD8091DB029091BC
:10188000DC020C94FE0D1092AD011092AC0188EEBA
:1018900093E0A0E0B0E08093AE019093AF01A093FD
:1018A000B001B093B1018FE291E09093AB018093CE
:1018B000AA0185EC90E09093B7018093B60184EC87
:1018C00090E09093B9018093B80180EC90E0909300
:1018D000BB018093BA0181EC90E09093BD018093AD
:1018E000BC0182EC90E09093BF018093BE0186EC36
:1018F00090E09093C1018093C0011092C3011092B7
:10190000C4011092C5011092C60180916B028C3007
:10191000A0F491E0980F90936B028093F90290E00D
:10192000FC01EE0FFF1F8E0F9F1FFC01E95BFD4FB7
:1019300088EB9BE09283818303C08FEF8093F90251
:101940001092E4021092E30289E491E09093E202A3
:101950008093E1028AE08093E5028FEF8093E602B4
:101960001092E70285E08093E80284E08093E90228
:1019700083E08093EA0282E08093EB021092EC0213
:101980001092ED021092EE021092EF021092F0020D
:1019900061E081EE92E00E9447051092DC02109215
:1019A000DB021092DE021092DD021092E002109231
:1019B000DF0240E050E062E971E08BED92E00E94CE
:1019C000620210926E0210927202109271021092D4
:1019D00073028FE391E090936D0280936C0280E03C
:1019E00090E0FC01E459FD4F148E10A2178E11A255
:1019F00006968C339105A9F787E091E09093CF028A
:101A00008093CE0284E091E09093D1028093D00243
:101A100084E08093D20283E08093D3028BE091E054
:101A20009093CD028093CC028AE090E09093D5020F
:101A30008093D40284EF91E09093D7028093D602F2
:101A40001092DA021092D9021092C8021092C902C2
:101A50001092CA021092CB021092D8020895991BDC
:101A600079E004C0991F961708F0961B881F7A9595
:101A7000C9F78095089597FB072E16F4009407D0B8
:101A800077FD09D00E944F0D07FC05D03EF49095DC
:101A900081959F4F0895709561957F4F0895AA1B7A
:101AA000BB1B51E107C0AA1FBB1FA617B70710F049
:101AB000A61BB70B881F991F5A95A9F7809590957B
:101AC000BC01CD010895EE0FFF1F0590F491E02DAC
:101AD0000994CF93DF938230910510F482E090E077
:101AE000E091FE02F091FF0220E030E0C0E0D0E0A3
:101AF000309711F14081518148175907C0F04817BC
:101B0000590761F482819381209719F09B838A831E
:101B10002BC09093FF028093FE0226C02115310551
:101B200019F04217530718F49A01BE01DF01EF01C3
:101B30000280F381E02DDCCF2115310509F1281B4E
:101B4000390B2430310590F412968D919C911397A6
:101B50006115710521F0FB019383828304C090938A
:101B6000FF028093FE02FD01329644C0FD01E20FA8
:101B7000F31F81939193225031092D933C933AC0E6
:101B80002091FC023091FD02232B41F42091190198
:101B900030911A013093FD022093FC02209117012D
:101BA000309118012115310541F42DB73EB7409110
:101BB0001B0150911C01241B350BE091FC02F0919C
:101BC000FD02E217F307A0F42E1B3F0B281739077D
:101BD00078F0AC014E5F5F4F2417350748F04E0F89
:101BE0005F1F5093FD024093FC028193919302C0CA
:101BF000E0E0F0E0CF01DF91CF9108950F931F93C4
:101C0000CF93DF93009709F48CC0FC0132971382C5
:101C100012820091FE021091FF020115110581F45C
:101C200020813181820F931F2091FC023091FD02AF
:101C30002817390779F5F093FD02E093FC0271C093
:101C4000D80140E050E0AE17BF0750F412962D9136
:101C50003C911397AD012115310509F1D901F3CF5D
:101C60009D01DA013383228360817181860F971F82
:101C70008217930769F4EC0128813981260F371FF9
:101C80002E5F3F4F318320838A819B8193838283A0
:101C9000452B29F4F093FF02E093FE0242C0139615
:101CA000FC93EE931297ED01499159919E01240FF7
:101CB000351FE217F30771F480819181840F951F1E
:101CC000029611969C938E938281938113969C9396
:101CD0008E931297E0E0F0E0D80112968D919C91DE
:101CE0001397009719F0F8018C01F6CF8D919C9114
:101CF00098012E5F3F4F820F931F2091FC0230917D
:101D0000FD022817390769F4309729F41092FF0271
:101D10001092FE0202C0138212821093FD02009301
:101D2000FC02DF91CF911F910F910895A0E0B0E0E8
:101D3000ECE9FEE00C942510EC01009721F4CB01B6
:101D40000E94690DB8C0FC01E60FF71F9C012250EC
:101D50003109E217F30708F4ACC0D9010D911C91C9
:101D6000119706171707B0F00530110508F49FC04A
:101D7000C80104978617970708F499C00250110903
:101D8000061B170B019311936D937C93CF010E9457
:101D9000FE0D8DC05B01A01AB10A4C01800E911E90
:101DA000A091FE02B091FF0240E050E0E12CF12C46
:101DB000109709F44AC0A815B905D1F56D907C902B
:101DC0001197630182E0C80ED11CCA14DB0480F1B4
:101DD000A3014A195B096A0182E0C80ED11C129660
:101DE000BC9012971396AC91B5E0CB16D10440F09D
:101DF000B282A38351834083D9016D937C930AC03F
:101E00000E5F1F4FC301800F911FF90191838083E3
:101E1000EB2DFA2FE114F10431F0D7011396FC9366
:101E2000EE93129744C0F093FF02E093FE023FC08E
:101E30008D919C9111974817590708F4AC017D01C9
:101E400012960D90BC91A02DB3CF8091FC02909181
:101E5000FD0288159905E1F446175707C8F48091EB
:101E6000170190911801009741F48DB79EB74091EA
:101E70001B0150911C01841B950BE817F907C8F44E
:101E8000F093FD02E093FC02F901718360830FC0BF
:101E9000CB010E94690D7C01009759F0A801BE0199
:101EA0000E94650FCE010E94FE0DC70104C0CE0145
:101EB00002C080E090E0CDB7DEB7EEE00C944110B8
:101EC00081E090E0F8940C948910FB01DC0102C0E1
:101ED00001900D9241505040D8F70895FB01DC016C
:101EE0008D91019080190110D9F3990B0895FB0190
:101EF000DC0101900D920020E1F708951F93FC0191
:101F000099278827BC01E89411911032E9F3193020
:101F100010F01E30C8F31B3251F01D3249F46894A2
:101F200006C00E94B00F610F711D811D911D11919E
:101F300010531A30B0F33EF49095809570956195EA
:101F40007F4F8F4F9F4F1F910895BB274A3031F429
:101F5000992322F4BDE2909581959F4F0C94C60F72
:101F6000592F482F372F262F660F771F881F991F4D
:101F7000660F771F881F991F620F731F841F951F9D
:101F8000660F771F881F991F0895BB27FB015527F0
:101F9000AA27880F991FAA1FA41710F0A41B8395C6
:101FA0005051B9F7A05DAA3308F0A95DA19300973D
:101FB00079F7B111B1931192CB010C94DF0FDC01D1
:101FC000FC01672F71917723E1F7329704C07C9170
:101FD0006D9370836291AE17BF07C8F30895052E05
:101FE00097FB1EF400940E94061057FD07D00E9434
:101FF000581007FC03D04EF40C94061050954095F1
:10200000309521953F4F4F4F5F4F089590958095A4
:10201000709561957F4F8F4F9F4F08950E947A1062
:10202000A59F900DB49F900DA49F800D911D11242C
:102030000895B7FF0C940E100E940E10821B930B94
:1020400008952F923F924F925F926F927F928F925C
:102050009F92AF92BF92CF92DF92EF92FF920F9337
:102060001F93CF93DF93CDB7DEB7CA1BDB0B0FB641
:10207000F894DEBF0FBECDBF09942A8839884888FE
:102080005F846E847D848C849B84AA84B984C88494
:10209000DF80EE80FD800C811B81AA81B981CE0F8B
:1020A000D11D0FB6F894DEBF0FBECDBFED01089570
:1020B000A1E21A2EAA1BBB1BFD010DC0AA1FBB1F4C
:1020C000EE1FFF1FA217B307E407F50720F0A21BBE
:1020D000B30BE40BF50B661F771F881F991F1A942B
:1020E00069F760957095809590959B01AC01BD0155
:1020F000CF010895A29FB001B39FC001A39F700DAF
:10210000811D1124911DB29F700D811D1124911DFF
:10211000089510E0C2E6D0E004C0FE010E94630D05
:0C2120002196C336D107C9F7F894FFCF11
:10212C000300050006070811100F0E313233343549
:10213C00363738392A3023000000038000010000B4
:10214C0000B0A4F9C0000000000000000000001264
:10215C00018E00DB00B900CD0059010000000080A9
:10216C00032A03D701000000005A048E004E686158
:10217C0070206D6174206B68617521002A0023004A
:10218C0020002057454C434F4D4520484F4D45218D
:10219C000020204D59204F574E4552005361692065
:1021AC006D6174206B68617521004552524F52006D
:0421BC000D0A000008
:107E0000112484B714BE81FFF0D085E080938100F7
:107E100082E08093C00088E18093C10086E0809377
:107E2000C20080E18093C4008EE0C9D0259A86E02C
:107E300020E33CEF91E0309385002093840096BBD3
:107E4000B09BFECF1D9AA8958150A9F7CC24DD24C4
:107E500088248394B5E0AB2EA1E19A2EF3E0BF2EE7
:107E6000A2D0813461F49FD0082FAFD0023811F036
:107E7000013811F484E001C083E08DD089C08234E0
:107E800011F484E103C0853419F485E0A6D080C0E4
:107E9000853579F488D0E82EFF2485D0082F10E0AE
:107EA000102F00270E291F29000F111F8ED06801E7
:107EB0006FC0863521F484E090D080E0DECF843638
:107EC00009F040C070D06FD0082F6DD080E0C81688
:107ED00080E7D80618F4F601B7BEE895C0E0D1E017
:107EE00062D089930C17E1F7F0E0CF16F0E7DF06D8
:107EF00018F0F601B7BEE89568D007B600FCFDCFD4
:107F0000A601A0E0B1E02C9130E011968C91119780
:107F100090E0982F8827822B932B1296FA010C0160
:107F200087BEE89511244E5F5F4FF1E0A038BF0790
:107F300051F7F601A7BEE89507B600FCFDCF97BE46
:107F4000E89526C08437B1F42ED02DD0F82E2BD052
:107F50003CD0F601EF2C8F010F5F1F4F84911BD097
:107F6000EA94F801C1F70894C11CD11CFA94CF0C13
:107F7000D11C0EC0853739F428D08EE10CD085E9AC
:107F80000AD08FE07ACF813511F488E018D01DD067
:107F900080E101D065CF982F8091C00085FFFCCF94
:107FA0009093C60008958091C00087FFFCCF809118
:107FB000C00084FD01C0A8958091C6000895E0E648
:107FC000F0E098E1908380830895EDDF803219F02E
:107FD00088E0F5DFFFCF84E1DECF1F93182FE3DFCA
:107FE0001150E9F7F2DF1F91089580E0E8DFEE27F6
:047FF000FF270994CA
:027FFE00040479
:0400000300007E007B
:00000001FF
