:100000000C945C000C9479000C9479000C947900A9
:100010000C9479000C9479000C9479000C9479007C
:100020000C9479000C9479000C9479000C9479006C
:100030000C9479000C9479000C9479000C9479005C
:100040000C9426010C9479000C9479000C9479009E
:100050000C9479000C9479000C9479000C9479003C
:100060000C9479000C947900000000080002010053
:100070000003040700000000000000000000000072
:10008000250028002B0000000000240027002A0083
:10009000040404040404040402020202020203032E
:1000A0000303030301020408102040800102040836
:1000B000102001020408102011241FBECFEFD8E049
:1000C000DEBFCDBF11E0A0E0B1E0EAE4F5E002C0A0
:1000D00005900D92A634B107D9F721E0A6E4B1E06E
:1000E00001C01D92AF34B207E1F70E9470010C9479
:1000F000A3020C94000090E0FC01E859FF4F3491FA
:10010000FC01EC55FF4F2491FC01E057FF4FE491B7
:10011000EE2309F43BC0332339F1333091F038F446
:100120003130A9F0323001F584B58F7D12C03730FF
:1001300091F03830A1F03430B9F4809180008F7D97
:1001400003C0809180008F77809380000DC084B5BC
:100150008F7784BD09C08091B0008F7703C08091F4
:10016000B0008F7D8093B000F0E0EE0FFF1FE458E9
:10017000FF4FA591B4918FB7F894EC91611103C032
:1001800020952E2301C02E2B2C938FBF08953FB7AF
:10019000F89480914B0190914C01A0914D01B09148
:1001A0004E0126B5A89B05C02F3F19F00196A11D51
:1001B000B11D3FBFBA2FA92F982F8827820F911DFD
:1001C000A11DB11DBC01CD0142E0660F771F881F44
:1001D000991F4A95D1F708958F929F92AF92BF923F
:1001E000CF92DF92EF92FF926B017C010E94C700D9
:1001F0004B015C01C114D104E104F104F1F00E944F
:10020000C700DC01CB0188199909AA09BB09883EFE
:100210009340A105B10570F321E0C21AD108E108AD
:10022000F10888EE880E83E0981EA11CB11CC11451
:10023000D104E104F10419F7DDCFFF90EF90DF90D6
:10024000CF90BF90AF909F908F9008951F920F9284
:100250000FB60F9211242F933F938F939F93AF93D9
:10026000BF938091470190914801A0914901B091BD
:100270004A013091460123E0230F2D3720F40196E7
:10028000A11DB11D05C026E8230F0296A11DB11DB9
:10029000209346018093470190934801A093490120
:1002A000B0934A0180914B0190914C01A0914D0176
:1002B000B0914E010196A11DB11D80934B01909309
:1002C0004C01A0934D01B0934E01BF91AF919F910E
:1002D0008F913F912F910F900FBE0F901F90189507
:1002E000CF93DF93CDB7DEB7A3970FB6F894DEBFF9
:1002F0000FBECDBF789484B5826084BD84B5816023
:1003000084BD85B5826085BD85B5816085BD8091E0
:100310006E00816080936E00109281008091810058
:100320008260809381008091810081608093810050
:10033000809180008160809380008091B100846012
:100340008093B1008091B00081608093B000809173
:100350007A00846080937A0080917A008260809332
:100360007A0080917A00816080937A0080917A008F
:10037000806880937A001092C100EDEAF0E0249149
:10038000E9E9F0E08491882399F090E0880F991FC3
:10039000FC01EA57FF4FA591B491FC01E458FF4FCF
:1003A000859194918FB7F894EC91E22BEC938FBFE9
:1003B000AE01475E5F4F5A8F498F46E351E05C8F35
:1003C0004B8F08E111E0AB8DBC8D4D91BC8FAB8F95
:1003D0004D8FD801403291F48D919C91ECE2F1E087
:1003E0008E9FB0018F9F700D9E9F700D1124072E60
:1003F000000C880B990B0E94EC007AC02D913C9167
:10040000ECE2F1E02E9FC0012F9F900D3E9F900DDA
:100410001124E0E0F1E0DE01519628E001900D9218
:100420002A95E1F7E8E0F1E0DE01119620E1019084
:100430000D922A95E1F728EE33E0DC010E948D024F
:1004400068A379A38AA39BA39E012F5E3F4F190146
:10045000AE014F5F5F4F6A01D1018D911D014D8D3E
:10046000841749F052E0C50ED11C498D5A8D2416CF
:10047000350691F73DC0D601ED90FC90C701880F7D
:10048000991F880F991F9C01255031093F8F2E8F8E
:100490002701440C551C052C000C66087708812C9C
:1004A000912C540128A139A14AA15BA1821693067F
:1004B000A406B506BCF661E089E00E947B0032E04C
:1004C000E316F10420F08E8D9F8D0197F1F760E027
:1004D00089E00E947B0042E0E416F10420F08E8D5A
:1004E0009F8D0197F1F7840C951CA61CB71CDACFE1
:1004F00066E970E080E090E00E94EC000E5F1F4F24
:1005000031E00633130709F05ECF80E090E0892BDD
:1005100009F453CF0E94000050CF0E949402B7FF0D
:100520000895821B930B0895A29FB001B39FC00151
:10053000A39F700D811D1124911DB29F700D811D0F
:0A0540001124911D0895F894FFCFD7
:10054A0063646566676162437B07A406EF059805E5
:10055A00FB047004F603BC03010001000100010062
:10056A000100010002000100010001000100010078
:10057A00010002000400636367676161676666657C
:06058A00656464632000BB
:00000001FF
