:100000000C9463000C948B000C948B000C948B006C
:100010000C948B000C948B000C948B000C948B0034
:100020000C948B000C948B000C948B000C944E045D
:100030000C948B000C948B000C948B000C948B0014
:100040000C947B030C948B000C94B3020C948D02E3
:100050000C948B000C948B000C948B000C948B00F4
:100060000C948B000C948B000000000024002700EF
:100070002A0000000000250028002B0000000000DE
:1000800023002600290004040404040404040202DA
:100090000202020203030303030301020408102007
:1000A0004080010204081020010204081020000012
:1000B0000008000201000003040700000000000027
:1000C00000001F0B190B11241FBECFEFD8E0DEBFBD
:1000D000CDBF11E0A0E0B1E0E6E9FEE102C005908D
:1000E0000D92A038B107D9F722E0A0E8B1E001C035
:1000F0001D92AA3EB207E1F710E0C2E6D0E004C0CC
:100100002197FE010E94180CC136D107C9F70E9441
:10011000FE060C943E0F0C9400000895CF92DF92DF
:10012000EF92FF920F931F93CF93DF936C017A01AD
:100130008B01C0E0D0E0CE15DF0589F0D8016D91CC
:100140008D01D601ED91FC910190F081E02DC60169
:100150000995892B11F47E0102C02196ECCFC701CD
:10016000DF91CF911F910F91FF90EF90DF90CF9093
:100170000895FC01918D828D981761F0828DDF01C9
:10018000A80FB11D5D968C91928D9F5F9F73928F8A
:1001900090E008958FEF9FEF0895FC01918D828D7F
:1001A000981731F0828DE80FF11D858D90E008954C
:1001B0008FEF9FEF0895FC01918D228D892F90E0A4
:1001C000805C9F4F821B91098F739927089584E962
:1001D00091E00E94DB0021E0892B09F420E0822FCE
:1001E0000895FC01848DDF01A80FB11DA35ABF4FF4
:1001F0002C91848D90E001968F739927848FA68926
:10020000B7892C93A089B1898C9180648C93938D4C
:10021000848D981306C00288F389E02D80818F7D3C
:1002200080830895EF92FF920F931F93CF93DF93F4
:10023000EC0181E0888F9B8D8C8D981305C0E88937
:10024000F989808185FD24C0F62E0B8D10E00F5FAB
:100250001F4F0F731127E02E8C8DE8120CC00FB6C4
:1002600007FCFACFE889F989808185FFF5CFCE01B7
:100270000E94F100F1CF8B8DFE01E80FF11DE35AD2
:10028000FF4FF0820B8FEA89FB898081806207C073
:10029000EE89FF896083E889F989808180648083A1
:1002A00081E090E0DF91CF911F910F91FF90EF904F
:1002B0000895CF93DF93EC01888D8823C9F0EA89F4
:1002C000FB89808185FD05C0A889B9898C9186FD4F
:1002D0000FC00FB607FCF5CF808185FFF2CFA8894C
:1002E000B9898C9185FFEDCFCE010E94F100E7CF57
:1002F000DF91CF91089580E090E0892B29F00E9452
:10030000E70081110C9400000895833081F028F4F7
:10031000813099F08230A1F008958730A9F08830BB
:10032000B9F08430D1F4809180008F7D03C080913A
:1003300080008F7780938000089584B58F7702C006
:1003400084B58F7D84BD08958091B0008F7703C000
:100350008091B0008F7D8093B0000895CF93DF939C
:10036000282F30E0F901E255FF4F8491F901E6565C
:10037000FF4FD491F901EA57FF4FC491CC2391F07C
:1003800081110E948501EC2FF0E0EE0FFF1FE45871
:10039000FF4FA591B491EC91ED2381E090E021F421
:1003A00080E002C080E090E0DF91CF910895862F39
:1003B0000C94AE013FB7F89480918601909187012B
:1003C000A0918801B091890126B5A89B05C02F3F57
:1003D00019F00196A11DB11D3FBFBA2FA92F982F6B
:1003E0008827820F911DA11DB11DBC01CD0142E0E6
:1003F000660F771F881F991F4A95D1F708958F922E
:100400009F92AF92BF92CF92DF92EF92FF926B01D9
:100410007C010E94DA014B015C01C114D104E104AA
:10042000F104F1F00E94DA01DC01CB01881999098D
:10043000AA09BB09883E9340A105B10570F321E0EC
:10044000C21AD108E108F10888EE880E83E0981EF0
:10045000A11CB11CC114D104E104F10419F7DDCFD2
:10046000FF90EF90DF90CF90BF90AF909F908F90D4
:1004700008950E94150E0F931F93CF93DF93EC0105
:1004800088819981009729F02A813B8126173707B7
:1004900088F48B016F5F7F4F0E944B0D009761F0D6
:1004A000998388831B830A832C813D81232B11F43C
:1004B000FC01108281E001C080E0DF91CF911F91AB
:1004C0000F910895EF92FF920F931F93CF93DF93B5
:1004D000EC017B018A01BA010E943B02288139812B
:1004E00081110DC02115310519F0C9010E94B30C0D
:1004F000198218821D821C821B821A8206C01D83EB
:100500000C83B701C9010E942C0ECE01DF91CF915F
:100510001F910F91FF90EF9008951F920F920FB6C9
:100520000F9211242F933F934F935F936F937F9379
:100530008F939F93AF93BF93EF93FF9384E991E0E1
:100540000E94F100FF91EF91BF91AF919F918F9128
:100550007F916F915F914F913F912F910F900FBEBF
:100560000F901F9018951F920F920FB60F921124A3
:100570002F938F939F93EF93FF93E091A401F091BA
:10058000A5018081E091AA01F091AB0182FD12C02A
:1005900090818091AD018F5F8F732091AE018217A2
:1005A00051F0E091AD01F0E0EC56FE4F958F809355
:1005B000AD0101C08081FF91EF919F918F912F91AB
:1005C0000F900FBE0F901F9018951F93CF93DF933E
:1005D000282F30E0F901E255FF4F8491F901E656EA
:1005E000FF4FD491F901EA57FF4FC491CC23C9F0D2
:1005F000162F81110E948501EC2FF0E0EE0FFF1FF6
:10060000EE58FF4FA591B4918FB7F894111105C022
:100610009C91ED2FE095E92302C0EC91ED2BEC933A
:100620008FBFDF91CF911F910895862F642F0C9477
:10063000E502CF93DF93EC0160E08E810E94E5023A
:1006400061E08E810E94E50260E08E810E94E502F9
:100650008BE891E00197F1F7DF91CF910895CF9367
:10066000DF9390E0FC01E656FF4F2491FC01EA572E
:10067000FF4F8491882361F190E0880F991FFC015E
:10068000E859FF4FC591D491FC01EE58FF4FA59159
:10069000B491611109C09FB7F89488812095822395
:1006A0008883EC912E230BC0623061F49FB7F894DD
:1006B0003881822F809583238883EC912E2B2C9375
:1006C0009FBF06C08FB7F894E8812E2B28838FBF79
:1006D000DF91CF910895862F642F0C942F032FB7AD
:1006E000F8946091820170918301809184019091CE
:1006F00085012FBF08951F920F920FB60F921124FC
:100700002F933F938F939F93AF93BF9380918201D9
:1007100090918301A0918401B09185013091810174
:1007200023E0230F2D3720F40196A11DB11D05C034
:1007300026E8230F0296A11DB11D2093810180930D
:10074000820190938301A0938401B09385018091ED
:10075000860190918701A0918801B091890101964D
:10076000A11DB11D8093860190938701A0938801FC
:10077000B0938901BF91AF919F918F913F912F913C
:100780000F900FBE0F901F901895CF92DF92EF92AF
:10079000FF920F931F93CF93DF937C016C0187E04F
:1007A000C80ED11CC0E0D0E0062F10E0B8010C2E1E
:1007B00002C0759567950A94E2F76170F601819120
:1007C0006F010E94E5022196C430D10579F7C70177
:1007D000DF91CF911F910F91FF90EF90DF90CF901D
:1007E0000C941903CF92DF92EF92FF920F931F9315
:1007F000CF93DF93EC01F62E642F8C810E94E502EB
:100800008D818F3F19F060E00E94E5028F850F2DEA
:1008100010E084FF25C06E0187E0C80ED11CE12CDA
:10082000F12CB8010E2C02C0759567950A94E2F779
:100830006170F60181916F010E94E502FFEFEF1AEE
:10084000FF0A88E0E816F10461F7CE01DF91CF914D
:100850001F910F91FF90EF90DF90CF900C941903B0
:10086000B80184E0759567958A95E1F7CE010E94FD
:10087000C5036F2DCE01DF91CF911F910F91FF9096
:10088000EF90DF90CF900C94C50341E00E94F203FB
:1008900081E090E0089540E00C94F2031F920F92E3
:1008A0000FB60F9211242F933F934F935F936F9343
:1008B0007F938F939F93AF93BF93EF93FF93809119
:1008C000800187FF05C010928500109284001BC034
:1008D00020918001022E000C330B8091550290E094
:1008E0002817390784F480918001082E000C990B99
:1008F000FC01EE0FFF1F8E0F9F1FFC01EF5CFD4FF1
:10090000808186FD15C0809180018F5F809380017A
:1009100020918001022E000C330B8091550290E053
:1009200028173907C4F4809180018C3064F113C01A
:1009300080918001082E000C990BFC01EE0FFF1F27
:100940008E0F9F1FFC01EF5CFD4F808160E08F7375
:100950000E94E502D8CF8091840090918500049692
:1009600080349C4918F480E49CE905C0809184009F
:1009700090918500049690938900809388008FEF72
:10098000809380013BC0209184003091850080914C
:100990008001082E000C990BFC01EE0FFF1F8E0F3B
:1009A0009F1FFC01EF5CFD4F81819281820F931F9D
:1009B000909389008093880080918001082E000C1C
:1009C000990BFC01EE0FFF1F8E0F9F1FFC01EF5CC8
:1009D000FD4F808186FF12C080918001082E000C9F
:1009E000990BFC01EE0FFF1F8E0F9F1FFC01EF5CA8
:1009F000FD4F808161E08F730E94E502FF91EF91CE
:100A0000BF91AF919F918F917F916F915F914F9126
:100A10003F912F910F900FBE0F901F90189596E069
:100A2000899FD0011124AA5ABD4F90967C936E9352
:100A30005F9791E091969C9391979091C202E0917B
:100A4000C302F091C402992339F0309751F081111B
:100A500008C08091720204C0309719F05C968C91A6
:100A600009940895EF92FF920F931F93CF93DF9312
:100A7000EC01623018F08F8588608F876B8B1C8A41
:100A800080E48D8B80E18E8B80E58F8B61E08C81A3
:100A90000E942F038D818F3F19F061E00E942F0388
:100AA00061E08E810E942F037E0187E0E80EF11C39
:100AB00000E010E08F8584FD03C084E090E002C078
:100AC00088E090E0081719074CF461E0F701819184
:100AD0007F010E942F030F5F1F4FECCF8BE39DE040
:100AE0000197F1F760E08C810E94E50260E08E8161
:100AF0000E94E5028D818F3F19F060E00E94E502BF
:100B00006F8564FD1DC063E0CE010E94C5030BE448
:100B100016E4C8010197F1F763E0CE010E94C50316
:100B2000C8010197F1F763E0CE010E94C50383E598
:100B300092E00197F1F762E0CE010E94C50316C072
:100B40006062CE010E944B048BE496E40197F1F7BA
:100B50006F856062CE010E944B0483E592E00197AD
:100B6000F1F76F856062CE010E944B046F85606271
:100B7000CE010E944B0484E0888B6CE0CE010E9481
:100B80004B0461E0CE010E944B048BE39FE101978F
:100B9000F1F782E0898B66E0CE01DF91CF911F9162
:100BA0000F91FF90EF900C944B04FC018091C902CF
:100BB0009091CA02892B21F421E0309749F413C0A7
:100BC0008091C5029091C602309731F421E0FC017A
:100BD0008081882341F006C0BF010E94230E21E0DE
:100BE000892B09F020E0822F0895CF92DF92EF92B7
:100BF000FF92DC01A03282E0B8070CF03EC0B7FDE6
:100C000006C0A53BB1052CF0A4EBB0E002C0A0E00B
:100C1000B0E08091E40228E830E06901C81AD10808
:100C200087FDD394CC0CDD1CCC0CDD1C0D2C000CF2
:100C3000EE08FF088091E50228E532E0281B310923
:100C400087FD3395220F331F220F331FA901330F66
:100C5000660B770B9A01AB012C193D094E095F0910
:100C60000E94CE0E24EB30E040E050E00E94A40E43
:100C7000C20ED31EE41EF51ED6019091E3029C30F5
:100C800098F58091E40248E850E0481B510987FD3F
:100C90005395440F551F440F551FA417B5078CF0EB
:100CA0008091E50228E532E0281B310987FD339564
:100CB000220F331F220F331FAD012A173B070CF4FD
:100CC000A90142505109440F551F2FB7F894892F9D
:100CD00090E0FC01EE0FFF1F8E0F9F1FFC01EF5CE9
:100CE000FD4F528341832FBFFF90EF90DF90CF9055
:100CF0000895009769F0FC0101900020E9F7319711
:100D0000AF01481B590BBC018BEC92E00C948E0098
:100D100080E090E00895643008F063E09091DE0296
:100D2000691710F06FEF690FE62FF0E0E553FD4F04
:100D30009489682F690F60688BEC92E00C944B04E7
:100D40000F931F93CF93DF93C82FD62F86E0C89FB2
:100D5000F0011124EA5AFD4F11A2878D90A1813034
:100D60009105F1F01CF4892B49F043C082309105C4
:100D7000A9F10397F1F560E070E034C06623C9F192
:100D800061E070E08C2F0E940F050E946F0360935A
:100D9000AE027093AF028093B0029093B10229C06B
:100DA0000E946F030091AE021091AF022091B00239
:100DB0003091B102AB01BC01401B510B620B730BB4
:100DC0008091C0029091C102A0E0B0E08417950725
:100DD000A607B70718F462E070E004C0D11109C09B
:100DE00063E070E08C2FDF91CF911F910F910C94F5
:100DF0000F05DF91CF911F910F910895CF93DF934E
:100E0000CDB7DEB72A970FB6F894DEBF0FBECDBFC1
:100E1000789484B5826084BD84B5816084BD85B5D5
:100E2000826085BD85B5816085BD80916E008160E1
:100E300080936E0010928100809181008260809387
:100E40008100809181008160809381008091800089
:100E50008160809380008091B10084608093B100B4
:100E60008091B00081608093B00080917A008460AE
:100E700080937A0080917A00826080937A008091DA
:100E80007A00816080937A0080917A0080688093F4
:100E90007A001092C1008091E3028C3008F051C0BA
:100EA00061E08DE00E942F038091E302E82FF0E0E3
:100EB0009F01220F331FE20FF31FEF5CFD4F908164
:100EC000907C9D6090831092E4021092E5026CE0A9
:100ED0000E940C0C9CE0899FB001112440E050E07E
:100EE0009A01260F371FF901EE0FFF1F2E0F3F1F2C
:100EF000F901EF5CFD4F908196FD16C04F5F5F4F8B
:100F00004C30510569F781110FC01092800082E0CA
:100F1000809381001092850010928400B19A809194
:100F20006F00826080936F00E091E302F0E0CF01F8
:100F3000880F991FE80FF91FEF5CFD4F80818064D7
:100F4000808380E090E00E94F50562E08BEC92E007
:100F50000E943205E091A401F091A50182E0808316
:100F6000E091A001F091A1011082E091A201F09125
:100F7000A3018FEC80831092AC01E091A801F09165
:100F8000A90186E08083E091A601F091A70180810C
:100F900080618083E091A601F091A7018081886043
:100FA0008083E091A601F091A70180818068808311
:100FB000E091A601F091A70180818F7D8083412C73
:100FC000512C3201439422242A94322C60E082E096
:100FD0000E948B0681E491E00E94790681E0809373
:100FE000C2020E946F030091B2021091B3022091DD
:100FF000B4023091B502AB01BC01401B510B620B36
:10100000730B8091BE029091BF02A0E0B0E0841704
:101010009507A607B70708F009C110E08091BC0248
:10102000181760F4E091B802F091B902E10FF11DD8
:1010300062E080810E942F031F5FF0CF912C80918E
:10104000BD02981608F062C0E92CF12CE091BA02BA
:10105000F091BB02EE0DFF1D61E080810E942F0325
:10106000E091BA02F091BB02EE0DFF1D60E08081BD
:101070000E94E502D301C201092C04C0880F991F08
:10108000AA1FBB1F0A94D2F75C016C01C094D094D4
:10109000812C8091BC02881610F5082D10E08091FB
:1010A000B8029091B902FC01E00FF11F80810E940B
:1010B000AE010C5F1F4F000F111FF801EA5AFD4FE0
:1010C000892B29F4808191818A299B2904C0808100
:1010D00091818C219D21918380838394DACFE0914B
:1010E000BA02F091BB02EE0DFF1D61E080810E940B
:1010F000E5028091BA029091BB02FC01EE0DFF1D4A
:1011000060E080810E942F03939499CFE2E7F2E0A0
:1011100083819481892B21F410823282218215826D
:10112000369682E0EE3AF80799F7E12C26E0F22EA7
:101130008091BC02E81608F053C0D12C0E2D10E0AF
:10114000000F111F025A1D4F2091BD02D21608F048
:1011500045C0F801608171810D2C02C076956795BC
:101160000A94E2F761707727E29E900111242D0D19
:10117000311DE091B602F091B702E20FF31FA0819A
:10118000E6E5F2E080E0458D568D4217530711F4F5
:1011900061701AC08F5F36968A30A9F7672BE1F02D
:1011A000E2E7F2E080E090E04081411110C0F89E5B
:1011B000F001F99EF00D1124EA5AFD4FA48F368FED
:1011C000258F10A2178E61E00E94A00605C001962F
:1011D00036968A30910541F7D394B6CFE394A8CFE1
:1011E00080E090E010E0FC01EA5AFD4F21A12111BE
:1011F00011E006968C339105B1F70E946F0360935E
:10120000B2027093B3028093B4029093B50211239B
:1012100069F080917702882349F08091750290915E
:101220007602019719F48091720203C01092C202F3
:1012300080E020917502309176022130310509F06D
:10124000DFC0882309F4DCC01A8219821C821B8249
:101250001E821D8289871A86BE01675F7F4FFB0150
:1012600001900020E9F73197AF01461B570BCE01E3
:1012700001960E9462028091C5029091C602009779
:10128000C9F069817A816115710591F04091C702B9
:101290005091C8022D813E814217530748F00E94A9
:1012A0002C0E8D819E819093CA028093C90218C032
:1012B0000E94B30C89819A819093C6028093C502E3
:1012C0008B819C819093C8028093C7028D819E81FF
:1012D0009093CA028093C9021A8219821C821B82CF
:1012E0001E821D8289819A810E94B30C81E691E061
:1012F0000E94D50581111AC080E591E00E94D505B4
:10130000811114C000919201109193018091C50246
:101310009091C602009709F488C10E94330E000F15
:10132000111FF801E457FE4F7183608380E591E05F
:101330000E94D5058823F9F0109293011092920132
:1013400085E090E09093010180930001809100017D
:10135000909101018A3091050CF04CC061E00E942F
:101360008B0682E591E00E947906809100019091C0
:1013700001010196E7CF81E691E00E94D50588231F
:10138000D1F08091920190919301019790939301F4
:1013900080939201809100019091010101979093B7
:1013A00001018093000161E00E948B0682E591E0DB
:1013B0000E94790625C061E0809100010E948B06A1
:1013C00081E691E00E9479068091920190919301CB
:1013D000833091055CF40196909393018093920180
:1013E0008091000190910101019606C01092930135
:1013F0001092920185E090E09093010180930001AA
:1014000080917502909176020297D1F480918A01C1
:1014100090918B0101961816190634F483309105CA
:101420002CF082E090E002C081E090E090938B018C
:1014300080938A016CEB72E080E090E00E94FF01F3
:1014400080917502909176020397B1F54AE08E0182
:101450000F5F1F4FB80180918A0190918B010E940C
:101460005A0EF80101900020E9F73197E01BF10BCB
:10147000E090C902F090CA023097D1F0EE0EFF1E44
:10148000B70185EC92E00E943B02882389F020910D
:10149000C5023091C6028091C9029091CA02B8017A
:1014A000820F931F0E942C0EF092CA02E092C90292
:1014B00010928B0110928A0164E670E080E090E067
:1014C0000E94FF018091920190919301039709F08E
:1014D000A9C080918C0190918D01019709F046C0BF
:1014E00080918E0190918F01029709F03FC0809109
:1014F0009001909191010397C9F560E082E00E940C
:101500008B0684E591E00E94790661E083E00E9409
:101510008B0683E691E00E9479068AE590E00E94BE
:10152000F50568E873E180E090E00E94FF0185E046
:1015300090E09093010180930001809100019091CF
:1015400001018E3191056CF461E00E948B0682E509
:1015500091E00E947906809100019091010101962D
:10156000E8CF80E090E00E94F50552C082E090E074
:1015700090930101809300018091000190910101FD
:101580008E3191056CF460E00E948B0682E591E05B
:101590000E94790680910001909101010196E8CFA7
:1015A00005E010E0109301010093000160E082E08B
:1015B0000E948B068CE691E00E94790661E085E04E
:1015C0000E948B068AE791E00E94790668EB7BE037
:1015D00080E090E00E94FF01109301010093000160
:1015E00080910001909101018A3091058CF461E0B5
:1015F0000E948B0682E591E00E94790680910001AD
:101600009091010101969093010180930001E8CF30
:1016100085E090E090930101809300011092930186
:10162000109292010E947B01D1CC60E070E0CB016E
:1016300076CE8091C5029091C6020C94B30C1092A4
:1016400097011092960188EE93E0A0E0B0E08093BD
:10165000980190939901A0939A01B0939B0183E222
:1016600091E0909395018093940185EC90E09093A4
:10167000A1018093A00184EC90E09093A30180935A
:10168000A20180EC90E09093A5018093A40181ECED
:1016900090E09093A7018093A60182EC90E0909354
:1016A000A9018093A80186EC90E09093AB01809310
:1016B000AA011092AD011092AE011092AF011092EA
:1016C000B001809155028C30A0F491E0980F909376
:1016D00055028093E30290E0FC01EE0FFF1F8E0F96
:1016E0009F1FFC01EF5CFD4F88EB9BE092838183A1
:1016F00003C08FEF8093E3021092CE021092CD02CE
:101700008DE391E09093CC028093CB028CE08093A8
:10171000CF028FEF8093D0028BE08093D10285E0DF
:101720008093D20284E08093D30283E08093D4023A
:1017300082E08093D5021092D6021092D7021092C6
:10174000D8021092D9021092DA0261E08BEC92E09A
:101750000E9432051092C6021092C5021092C80271
:101760001092C7021092CA021092C90240E050E0E3
:1017700063E571E085EC92E00E94620210925802EB
:1017800010925C0210925B0210925D0283E391E082
:10179000909357028093560280E090E0FC01EA5A51
:1017A000FD4F148E10A2178E11A206968C33910550
:1017B000A9F785E091E09093B9028093B80282E0A6
:1017C00091E09093BB028093BA0284E08093BC02C4
:1017D00083E08093BD0289E091E09093B70280930B
:1017E000B6028AE090E09093BF028093BE0284EF3D
:1017F00091E09093C1028093C0021092C4021092B3
:10180000C3021092B2021092B3021092B40210926C
:10181000B5021092C2020895991B79E004C0991F85
:10182000961708F0961B881F7A95C9F7809508953A
:10183000EE0FFF1F0590F491E02D0994CF93DF93F5
:101840008230910510F482E090E0E091E802F0919E
:10185000E90220E030E0C0E0D0E0309711F14081B3
:10186000518148175907C0F04817590761F4828120
:101870009381209719F09B838A832BC09093E90270
:101880008093E80226C02115310519F0421753074D
:1018900018F49A01BE01DF01EF010280F381E02D0F
:1018A000DCCF2115310509F1281B390B2430310516
:1018B00090F412968D919C9113976115710521F00A
:1018C000FB019383828304C09093E9028093E80232
:1018D000FD01329644C0FD01E20FF31F8193919305
:1018E000225031092D933C933AC02091E602309169
:1018F000E702232B41F42091170130911801309316
:10190000E7022093E602209115013091160121157E
:10191000310541F42DB73EB74091190150911A019C
:10192000241B350BE091E602F091E702E217F30782
:10193000A0F42E1B3F0B2817390778F0AC014E5F3F
:101940005F4F2417350748F04E0F5F1F5093E70293
:101950004093E6028193919302C0E0E0F0E0CF0172
:10196000DF91CF9108950F931F93CF93DF9300974B
:1019700009F48CC0FC013297138212820091E802B4
:101980001091E9020115110581F420813181820F46
:10199000931F2091E6023091E7022817390779F565
:1019A000F093E702E093E60271C0D80140E050E016
:1019B000AE17BF0750F412962D913C911397AD01CD
:1019C0002115310509F1D901F3CF9D01DA013383E6
:1019D000228360817181860F971F8217930769F4B4
:1019E000EC0128813981260F371F2E5F3F4F31834D
:1019F00020838A819B8193838283452B29F4F093F2
:101A0000E902E093E80242C01396FC93EE9312972A
:101A1000ED01499159919E01240F351FE217F307FB
:101A200071F480819181840F951F029611969C9389
:101A30008E938281938113969C938E931297E0E00C
:101A4000F0E0D80112968D919C911397009719F0B0
:101A5000F8018C01F6CF8D919C9198012E5F3F4F3C
:101A6000820F931F2091E6023091E7022817390771
:101A700069F4309729F41092E9021092E80202C04A
:101A8000138212821093E7020093E602DF91CF9156
:101A90001F910F910895A0E0B0E0E1E5FDE00C9406
:101AA000DA0EEC01009721F4CB010E941E0CB8C0A5
:101AB000FC01E60FF71F9C0122503109E217F307E2
:101AC00008F4ACC0D9010D911C91119706171707A6
:101AD000B0F00530110508F49FC0C80104978617BF
:101AE000970708F499C002501109061B170B0193C0
:101AF00011936D937C93CF010E94B30C8DC05B0159
:101B0000A01AB10A4C01800E911EA091E802B0917A
:101B1000E90240E050E0E12CF12C109709F44AC0B2
:101B2000A815B905D1F56D907C901197630182E0FD
:101B3000C80ED11CCA14DB0480F1A3014A195B0949
:101B40006A0182E0C80ED11C1296BC9012971396BF
:101B5000AC91B5E0CB16D10440F0B282A38351839F
:101B60004083D9016D937C930AC00E5F1F4FC30160
:101B7000800F911FF90191838083EB2DFA2FE114DF
:101B8000F10431F0D7011396FC93EE93129744C001
:101B9000F093E902E093E8023FC08D919C91119788
:101BA0004817590708F4AC017D0112960D90BC91BD
:101BB000A02DB3CF8091E6029091E7028815990598
:101BC000E1F446175707C8F480911501909116016A
:101BD000009741F48DB79EB74091190150911A01B9
:101BE000841B950BE817F907C8F4F093E702E0931C
:101BF000E602F901718360830FC0CB010E941E0CC5
:101C00007C01009759F0A801BE010E941A0ECE0176
:101C10000E94B30CC70104C0CE0102C080E090E076
:101C2000CDB7DEB7EEE00C94F60E81E090E0F894CC
:101C30000C943E0FFB01DC0102C001900D9241505B
:101C40005040D8F70895FB01DC018D910190801977
:101C50000110D9F3990B0895FB01DC0101900D925D
:101C60000020E1F708951F93FC0199278827BC0104
:101C7000E89411911032E9F3193010F01E30C8F3D6
:101C80001B3251F01D3249F4689406C00E94650E63
:101C9000610F711D811D911D119110531A30B0F308
:101CA0003EF490958095709561957F4F8F4F9F4F33
:101CB0001F910895BB274A3031F4992322F4BDE2E5
:101CC000909581959F4F0C947B0E592F482F372F5D
:101CD000262F660F771F881F991F660F771F881F93
:101CE000991F620F731F841F951F660F771F881F30
:101CF000991F0895BB27FB015527AA27880F991F15
:101D0000AA1FA41710F0A41B83955051B9F7A05D2A
:101D1000AA3308F0A95DA193009779F7B111B193A7
:101D20001192CB010C94940EDC01FC01672F719190
:101D30007723E1F7329704C07C916D9370836291B1
:101D4000AE17BF07C8F30895052E97FB1EF4009445
:101D50000E94BB0E57FD07D00E940D0F07FC03D059
:101D60004EF40C94BB0E50954095309521953F4F05
:101D70004F4F5F4F089590958095709561957F4F77
:101D80008F4F9F4F08950E942F0FA59F900DB49FD6
:101D9000900DA49F800D911D11240895B7FF0C9400
:101DA000C30E0E94C30E821B930B08952F923F9285
:101DB0004F925F926F927F928F929F92AF92BF925B
:101DC000CF92DF92EF92FF920F931F93CF93DF9307
:101DD000CDB7DEB7CA1BDB0B0FB6F894DEBF0FBE64
:101DE000CDBF09942A88398848885F846E847D84B1
:101DF0008C849B84AA84B984C884DF80EE80FD80B3
:101E00000C811B81AA81B981CE0FD11D0FB6F89428
:101E1000DEBF0FBECDBFED010895A1E21A2EAA1BB1
:101E2000BB1BFD010DC0AA1FBB1FEE1FFF1FA2178A
:101E3000B307E407F50720F0A21BB30BE40BF50B87
:101E4000661F771F881F991F1A9469F76095709510
:101E5000809590959B01AC01BD01CF010895A29F93
:101E6000B001B39FC001A39F700D811D1124911D6E
:101E7000B29F700D811D1124911D089510E0C2E6DE
:101E8000D0E004C0FE010E94180C2196C336D10791
:061E9000C9F7F894FFCF32
:101E96000500000A060708090E3132333435363795
:101EA60038392A30230000EA0280000100000000D1
:101EB60000000012018E00DB00B900CD00590100C0
:101EC6000000006B031503D7010000000045048ED7
:101ED600004E686170206D6174206B686175210029
:101EE60023002000586F617920736572766F203960
:101EF600302A002020414354494F4E005361692047
:101F06006D6174206B68617521004552524F520015
:107E0000112484B714BE81FFF0D085E080938100F7
:107E100082E08093C00088E18093C10086E0809377
:107E2000C20080E18093C4008EE0C9D0259A86E02C
:107E300020E33CEF91E0309385002093840096BBD3
:107E4000B09BFECF1D9AA8958150A9F7CC24DD24C4
:107E500088248394B5E0AB2EA1E19A2EF3E0BF2EE7
:107E6000A2D0813461F49FD0082FAFD0023811F036
:107E7000013811F484E001C083E08DD089C08234E0
:107E800011F484E103C0853419F485E0A6D080C0E4
:107E9000853579F488D0E82EFF2485D0082F10E0AE
:107EA000102F00270E291F29000F111F8ED06801E7
:107EB0006FC0863521F484E090D080E0DECF843638
:107EC00009F040C070D06FD0082F6DD080E0C81688
:107ED00080E7D80618F4F601B7BEE895C0E0D1E017
:107EE00062D089930C17E1F7F0E0CF16F0E7DF06D8
:107EF00018F0F601B7BEE89568D007B600FCFDCFD4
:107F0000A601A0E0B1E02C9130E011968C91119780
:107F100090E0982F8827822B932B1296FA010C0160
:107F200087BEE89511244E5F5F4FF1E0A038BF0790
:107F300051F7F601A7BEE89507B600FCFDCF97BE46
:107F4000E89526C08437B1F42ED02DD0F82E2BD052
:107F50003CD0F601EF2C8F010F5F1F4F84911BD097
:107F6000EA94F801C1F70894C11CD11CFA94CF0C13
:107F7000D11C0EC0853739F428D08EE10CD085E9AC
:107F80000AD08FE07ACF813511F488E018D01DD067
:107F900080E101D065CF982F8091C00085FFFCCF94
:107FA0009093C60008958091C00087FFFCCF809118
:107FB000C00084FD01C0A8958091C6000895E0E648
:107FC000F0E098E1908380830895EDDF803219F02E
:107FD00088E0F5DFFFCF84E1DECF1F93182FE3DFCA
:107FE0001150E9F7F2DF1F91089580E0E8DFEE27F6
:047FF000FF270994CA
:027FFE00040479
:0400000300007E007B
:00000001FF
